{
  "contractName": "LendingHand",
  "abi": [
    {
      "inputs": [],
      "payable": false,
      "stateMutability": "nonpayable",
      "type": "constructor"
    },
    {
      "anonymous": false,
      "inputs": [
        {
          "indexed": false,
          "internalType": "uint256",
          "name": "id",
          "type": "uint256"
        },
        {
          "indexed": false,
          "internalType": "string",
          "name": "name",
          "type": "string"
        },
        {
          "indexed": false,
          "internalType": "string",
          "name": "description",
          "type": "string"
        },
        {
          "indexed": false,
          "internalType": "uint256",
          "name": "goal",
          "type": "uint256"
        },
        {
          "indexed": false,
          "internalType": "uint256",
          "name": "current",
          "type": "uint256"
        },
        {
          "indexed": false,
          "internalType": "address payable",
          "name": "owner",
          "type": "address"
        },
        {
          "indexed": false,
          "internalType": "bool",
          "name": "reachedGoal",
          "type": "bool"
        },
        {
          "indexed": false,
          "internalType": "address[1000]",
          "name": "donors",
          "type": "address[1000]"
        },
        {
          "indexed": false,
          "internalType": "uint256[1000]",
          "name": "donations",
          "type": "uint256[1000]"
        },
        {
          "indexed": false,
          "internalType": "uint256",
          "name": "numDonors",
          "type": "uint256"
        }
      ],
      "name": "PostCreated",
      "type": "event"
    },
    {
      "anonymous": false,
      "inputs": [
        {
          "indexed": false,
          "internalType": "uint256",
          "name": "id",
          "type": "uint256"
        },
        {
          "indexed": false,
          "internalType": "string",
          "name": "name",
          "type": "string"
        },
        {
          "indexed": false,
          "internalType": "string",
          "name": "description",
          "type": "string"
        },
        {
          "indexed": false,
          "internalType": "uint256",
          "name": "goal",
          "type": "uint256"
        },
        {
          "indexed": false,
          "internalType": "uint256",
          "name": "current",
          "type": "uint256"
        },
        {
          "indexed": false,
          "internalType": "address payable",
          "name": "owner",
          "type": "address"
        },
        {
          "indexed": false,
          "internalType": "bool",
          "name": "reachedGoal",
          "type": "bool"
        },
        {
          "indexed": false,
          "internalType": "address[1000]",
          "name": "donors",
          "type": "address[1000]"
        },
        {
          "indexed": false,
          "internalType": "uint256[1000]",
          "name": "donations",
          "type": "uint256[1000]"
        },
        {
          "indexed": false,
          "internalType": "uint256",
          "name": "numDonors",
          "type": "uint256"
        }
      ],
      "name": "PostDonated",
      "type": "event"
    },
    {
      "constant": true,
      "inputs": [],
      "name": "name",
      "outputs": [
        {
          "internalType": "string",
          "name": "",
          "type": "string"
        }
      ],
      "payable": false,
      "stateMutability": "view",
      "type": "function"
    },
    {
      "constant": true,
      "inputs": [],
      "name": "postCount",
      "outputs": [
        {
          "internalType": "uint256",
          "name": "",
          "type": "uint256"
        }
      ],
      "payable": false,
      "stateMutability": "view",
      "type": "function"
    },
    {
      "constant": true,
      "inputs": [
        {
          "internalType": "uint256",
          "name": "",
          "type": "uint256"
        }
      ],
      "name": "posts",
      "outputs": [
        {
          "internalType": "uint256",
          "name": "id",
          "type": "uint256"
        },
        {
          "internalType": "string",
          "name": "name",
          "type": "string"
        },
        {
          "internalType": "string",
          "name": "description",
          "type": "string"
        },
        {
          "internalType": "uint256",
          "name": "goal",
          "type": "uint256"
        },
        {
          "internalType": "uint256",
          "name": "current",
          "type": "uint256"
        },
        {
          "internalType": "address payable",
          "name": "owner",
          "type": "address"
        },
        {
          "internalType": "bool",
          "name": "reachedGoal",
          "type": "bool"
        },
        {
          "internalType": "uint256",
          "name": "numDonors",
          "type": "uint256"
        }
      ],
      "payable": false,
      "stateMutability": "view",
      "type": "function"
    },
    {
      "constant": false,
      "inputs": [
        {
          "internalType": "string",
          "name": "_name",
          "type": "string"
        },
        {
          "internalType": "string",
          "name": "_description",
          "type": "string"
        },
        {
          "internalType": "uint256",
          "name": "_goal",
          "type": "uint256"
        }
      ],
      "name": "createPost",
      "outputs": [],
      "payable": false,
      "stateMutability": "nonpayable",
      "type": "function"
    },
    {
      "constant": false,
      "inputs": [
        {
          "internalType": "uint256",
          "name": "_id",
          "type": "uint256"
        }
      ],
      "name": "donateToPost",
      "outputs": [],
      "payable": true,
      "stateMutability": "payable",
      "type": "function"
    }
  ],
  "bytecode": "0x6080604052600080553480156200001557600080fd5b506040518060400160405280600c81526020017f4c656e64696e672048616e64000000000000000000000000000000000000000081525060029080519060200190620000639291906200006a565b5062000119565b828054600181600116156101000203166002900490600052602060002090601f016020900481019282601f10620000ad57805160ff1916838001178555620000de565b82800160010185558215620000de579182015b82811115620000dd578251825591602001919060010190620000c0565b5b509050620000ed9190620000f1565b5090565b6200011691905b8082111562000112576000816000905550600101620000f8565b5090565b90565b61143b80620001296000396000f3fe60806040526004361061004a5760003560e01c806306fdde031461004f5780630b1e7f83146100df57806317906c2e14610259578063742d931a14610284578063b68603b6146103ed575b600080fd5b34801561005b57600080fd5b5061006461041b565b6040518080602001828103825283818151815260200191508051906020019080838360005b838110156100a4578082015181840152602081019050610089565b50505050905090810190601f1680156100d15780820380516001836020036101000a031916815260200191505b509250505060405180910390f35b3480156100eb57600080fd5b506101186004803603602081101561010257600080fd5b81019080803590602001909291905050506104b9565b6040518089815260200180602001806020018881526020018781526020018673ffffffffffffffffffffffffffffffffffffffff1673ffffffffffffffffffffffffffffffffffffffff1681526020018515151515815260200184815260200183810383528a818151815260200191508051906020019080838360005b838110156101b0578082015181840152602081019050610195565b50505050905090810190601f1680156101dd5780820380516001836020036101000a031916815260200191505b50838103825289818151815260200191508051906020019080838360005b838110156102165780820151818401526020810190506101fb565b50505050905090810190601f1680156102435780820380516001836020036101000a031916815260200191505b509a505050505050505050505060405180910390f35b34801561026557600080fd5b5061026e61065f565b6040518082815260200191505060405180910390f35b34801561029057600080fd5b506103eb600480360360608110156102a757600080fd5b81019080803590602001906401000000008111156102c457600080fd5b8201836020820111156102d657600080fd5b803590602001918460018302840111640100000000831117156102f857600080fd5b91908080601f016020809104026020016040519081016040528093929190818152602001838380828437600081840152601f19601f8201169050808301925050505050505091929192908035906020019064010000000081111561035b57600080fd5b82018360208201111561036d57600080fd5b8035906020019184600183028401116401000000008311171561038f57600080fd5b91908080601f016020809104026020016040519081016040528093929190818152602001838380828437600081840152601f19601f82011690508083019250505050505050919291929080359060200190929190505050610665565b005b6104196004803603602081101561040357600080fd5b81019080803590602001909291905050506109fe565b005b60028054600181600116156101000203166002900480601f0160208091040260200160405190810160405280929190818152602001828054600181600116156101000203166002900480156104b15780601f10610486576101008083540402835291602001916104b1565b820191906000526020600020905b81548152906001019060200180831161049457829003601f168201915b505050505081565b6001602052806000526040600020600091509050806000015490806001018054600181600116156101000203166002900480601f01602080910402602001604051908101604052809291908181526020018280546001816001161561010002031660029004801561056b5780601f106105405761010080835404028352916020019161056b565b820191906000526020600020905b81548152906001019060200180831161054e57829003601f168201915b505050505090806002018054600181600116156101000203166002900480601f0160208091040260200160405190810160405280929190818152602001828054600181600116156101000203166002900480156106095780601f106105de57610100808354040283529160200191610609565b820191906000526020600020905b8154815290600101906020018083116105ec57829003601f168201915b5050505050908060030154908060040154908060050160009054906101000a900473ffffffffffffffffffffffffffffffffffffffff16908060050160149054906101000a900460ff1690806107d60154905088565b60005481565b600083511161067357600080fd5b600082511161068157600080fd5b6000811161068e57600080fd5b610696611158565b61069e61117c565b600160008082825401925050819055506040518061014001604052806000548152602001868152602001858152602001848152602001600081526020013373ffffffffffffffffffffffffffffffffffffffff1681526020016000151581526020018381526020018281526020016000815250600160008054815260200190815260200160002060008201518160000155602082015181600101908051906020019061074b9291906111a0565b5060408201518160020190805190602001906107689291906111a0565b50606082015181600301556080820151816004015560a08201518160050160006101000a81548173ffffffffffffffffffffffffffffffffffffffff021916908373ffffffffffffffffffffffffffffffffffffffff16021790555060c08201518160050160146101000a81548160ff02191690831515021790555060e082015181600601906103e86107fc929190611220565b50610100820151816103ee01906103e861081792919061129e565b50610120820151816107d601559050507f93a1d09576d492f3dcd94d5d218ca0a906b7daa24fdfb6d00c2dd2d9b0efe2b4600054868686600033600089896000604051808b815260200180602001806020018a81526020018981526020018873ffffffffffffffffffffffffffffffffffffffff1673ffffffffffffffffffffffffffffffffffffffff16815260200187151515158152602001866103e860200280838360005b838110156108d95780820151818401526020810190506108be565b50505050905001856103e860200280838360005b838110156109085780820151818401526020810190506108ed565b5050505090500184815260200183810383528c818151815260200191508051906020019080838360005b8381101561094d578082015181840152602081019050610932565b50505050905090810190601f16801561097a5780820380516001836020036101000a031916815260200191505b5083810382528b818151815260200191508051906020019080838360005b838110156109b3578082015181840152602081019050610998565b50505050905090810190601f1680156109e05780820380516001836020036101000a031916815260200191505b509c5050505050505050505050505060405180910390a15050505050565b610a066112df565b600160008381526020019081526020016000206040518061014001604052908160008201548152602001600182018054600181600116156101000203166002900480601f016020809104026020016040519081016040528092919081815260200182805460018160011615610100020316600290048015610ac85780601f10610a9d57610100808354040283529160200191610ac8565b820191906000526020600020905b815481529060010190602001808311610aab57829003601f168201915b50505050508152602001600282018054600181600116156101000203166002900480601f016020809104026020016040519081016040528092919081815260200182805460018160011615610100020316600290048015610b6a5780601f10610b3f57610100808354040283529160200191610b6a565b820191906000526020600020905b815481529060010190602001808311610b4d57829003601f168201915b5050505050815260200160038201548152602001600482015481526020016005820160009054906101000a900473ffffffffffffffffffffffffffffffffffffffff1673ffffffffffffffffffffffffffffffffffffffff1673ffffffffffffffffffffffffffffffffffffffff1681526020016005820160149054906101000a900460ff16151515158152602001600682016103e88060200260405190810160405280929190826103e88015610c6c576020028201915b8160009054906101000a900473ffffffffffffffffffffffffffffffffffffffff1673ffffffffffffffffffffffffffffffffffffffff1681526020019060010190808311610c22575b505050505081526020016103ee82016103e88060200260405190810160405280929190826103e88015610cb4576020028201915b815481526020019060010190808311610ca0575b505050505081526020016107d682015481525050905060008160a001519050600083118015610ce557506000548311155b610cee57600080fd5b6000341015610cfc57600080fd5b8160c0015115610d0b57600080fd5b3373ffffffffffffffffffffffffffffffffffffffff168173ffffffffffffffffffffffffffffffffffffffff161415610d4457600080fd5b6103e882610120015110610d5757600080fd5b338260e001518361012001516103e88110610d6e57fe5b602002019073ffffffffffffffffffffffffffffffffffffffff16908173ffffffffffffffffffffffffffffffffffffffff1681525050348261010001518361012001516103e88110610dbd57fe5b602002018181525050600182610120018181510191508181525050348260800181815101915081815250508160600151826080015110610e095760018260c00190151590811515815250505b8160016000858152602001908152602001600020600082015181600001556020820151816001019080519060200190610e439291906111a0565b506040820151816002019080519060200190610e609291906111a0565b50606082015181600301556080820151816004015560a08201518160050160006101000a81548173ffffffffffffffffffffffffffffffffffffffff021916908373ffffffffffffffffffffffffffffffffffffffff16021790555060c08201518160050160146101000a81548160ff02191690831515021790555060e082015181600601906103e8610ef4929190611220565b50610100820151816103ee01906103e8610f0f92919061129e565b50610120820151816107d601559050508073ffffffffffffffffffffffffffffffffffffffff166108fc349081150290604051600060405180830381858888f19350505050158015610f65573d6000803e3d6000fd5b507fe0e50aa254a9be899167571faa6a582a06e99dec914608dde2a6b01287f07969838360200151846040015185606001518660800151868860c001518960e001518a61010001518b6101200151604051808b815260200180602001806020018a81526020018981526020018873ffffffffffffffffffffffffffffffffffffffff1673ffffffffffffffffffffffffffffffffffffffff16815260200187151515158152602001866103e860200280838360005b8381101561103557808201518184015260208101905061101a565b50505050905001856103e860200280838360005b83811015611064578082015181840152602081019050611049565b5050505090500184815260200183810383528c818151815260200191508051906020019080838360005b838110156110a957808201518184015260208101905061108e565b50505050905090810190601f1680156110d65780820380516001836020036101000a031916815260200191505b5083810382528b818151815260200191508051906020019080838360005b8381101561110f5780820151818401526020810190506110f4565b50505050905090810190601f16801561113c5780820380516001836020036101000a031916815260200191505b509c5050505050505050505050505060405180910390a1505050565b60405180617d0001604052806103e890602082028038833980820191505090505090565b60405180617d0001604052806103e890602082028038833980820191505090505090565b828054600181600116156101000203166002900490600052602060002090601f016020900481019282601f106111e157805160ff191683800117855561120f565b8280016001018555821561120f579182015b8281111561120e5782518255916020019190600101906111f3565b5b50905061121c9190611356565b5090565b826103e8810192821561128d579160200282015b8281111561128c5782518260006101000a81548173ffffffffffffffffffffffffffffffffffffffff021916908373ffffffffffffffffffffffffffffffffffffffff16021790555091602001919060010190611234565b5b50905061129a919061137b565b5090565b826103e881019282156112ce579160200282015b828111156112cd5782518255916020019190600101906112b2565b5b5090506112db9190611356565b5090565b6040518061014001604052806000815260200160608152602001606081526020016000815260200160008152602001600073ffffffffffffffffffffffffffffffffffffffff16815260200160001515815260200161133c6113be565b81526020016113496113e2565b8152602001600081525090565b61137891905b8082111561137457600081600090555060010161135c565b5090565b90565b6113bb91905b808211156113b757600081816101000a81549073ffffffffffffffffffffffffffffffffffffffff021916905550600101611381565b5090565b90565b60405180617d0001604052806103e890602082028038833980820191505090505090565b60405180617d0001604052806103e89060208202803883398082019150509050509056fea265627a7a723158206191c3a0530b03adbb0a7813e1aa0aa85fcc787d7d22e732f697b39b2350194064736f6c63430005110032",
  "source": "// SPDX-License-Identifier: MIT\npragma solidity >=0.4.22 <0.7.0;\n\ncontract LendingHand {\n   uint public postCount = 0;\n   mapping(uint => Post) public posts;\n   string public name;\n\n\n   struct Post {\n      uint id;\n      string name;\n      string description;\n      uint goal;\n      uint current;\n      address payable owner;\n      bool reachedGoal;\n      address[1000] donors;\n      uint[1000] donations;\n      uint numDonors;\n   }\n\n\n    event PostCreated(\n      uint id,\n      string name,\n      string description,\n      uint goal,\n      uint current,\n      address payable owner,\n      bool reachedGoal,\n      address[1000] donors,\n      uint[1000] donations,\n      uint numDonors\n    );\n\n    event PostDonated(\n      uint id,\n      string name,\n      string description,\n      uint goal,\n      uint current,\n      address payable owner,\n      bool reachedGoal,\n      address[1000] donors,\n      uint[1000] donations,\n      uint numDonors\n    );\n\n    constructor() public {\n    name = \"Lending Hand\";\n  }\n\n\n   function createPost(string memory _name, string memory _description, uint _goal) public {\n        //Make sure parameters are correct\n        //Create the product\n        require(bytes(_name).length > 0);\n        require(bytes(_description).length > 0);\n        require(_goal > 0);\n\n\n\n        address[1000] memory _donors;\n        uint[1000] memory _donations;\n        //Increment Product Count\n        postCount += 1;\n        posts[postCount] = Post(postCount, _name, _description, _goal, 0, msg.sender, false, _donors, _donations, 0); //msg.sender is person who called the function\n        //Trigger an event (debugging purposes)\n        emit PostCreated(postCount, _name, _description, _goal, 0, msg.sender, false, _donors, _donations, 0);\n   }\n\n\n\n   function donateToPost(uint _id) public payable {\n    //Fetch the product\n    Post memory _post = posts[_id];\n    //Fetch the owner\n    address payable _donee = _post.owner;\n    //Make sure the product is valid\n    require(_id > 0 && _id <= postCount);\n    //Require that there is enough Ether in the transaction\n    require(msg.value >= 0);\n\n    require(!_post.reachedGoal);\n\n    require(_donee != msg.sender);\n\n    require(_post.numDonors < 1000);\n\n\n\n    //update the post statistics\n    _post.donors[_post.numDonors] = msg.sender;\n    _post.donations[_post.numDonors] = msg.value;\n\n    _post.numDonors += 1;\n\n    _post.current += msg.value;\n\n    if (_post.current >= _post.goal) {\n        _post.reachedGoal = true;\n    }\n\n    // Update the product\n    posts[_id] = _post;\n    //Pay the seller sending them Ether\n\n\n    _donee.transfer(msg.value);\n    //Trigger an event\n    emit PostDonated(_id, _post.name, _post.description, _post.goal, _post.current, _donee, _post.reachedGoal, _post.donors, _post.donations, _post.numDonors);\n   }\n\n}",
  "sourcePath": "/Users/amit/FunProjects/LendingHand/backend/src/contracts/LendingHand.sol",
  "compiler": {
    "name": "solc",
    "version": "0.5.17+commit.d19bba13.Emscripten.clang"
  },
  "schemaVersion": "3.4.14",
  "updatedAt": "2023-07-10T23:35:08.869Z",
  "devdoc": {
    "methods": {}
  },
  "userdoc": {
    "methods": {}
  }
}